:020000040800F2
:10000000000004203D1A0008591900086119000871
:100010006919000871190008791900088D1A00087B
:10002000000000000000000000000000811900082E
:100030008F190008000000009D190008AB19000886
:100040008D1A00088D1A00088D1A00088D1A0008F4
:100050008D1A00088D1A00088D1A00088D1A0008E4
:100060008D1A00088D1A00088D1A00088D1A0008D4
:100070008D1A00088D1A00088D1A00088D1A0008C4
:100080008D1A00088D1A00088D1A00088D1A0008B4
:100090008D1A00088D1A00088D1A00088D1A0008A4
:1000A0008D1A00088D1A00088D1A00088D1A000894
:1000B0008D1A00088D1A00088D1A00088D1A000884
:1000C0008D1A00088D1A00088D1A00088D1A000874
:1000D0008D1A00088D1A00088D1A00088D1A000864
:1000E0008D1A00088D1A00088D1A00088D1A000854
:1000F0008D1A00088D1A00088D1A00088D1A000844
:100100008D1A00088D1A00088D1A00088D1A000833
:100110008D1A00088D1A00088D1A00088D1A000823
:100120008D1A00088D1A00088D1A00088D1A000813
:100130008D1A00088D1A0008000000008D1A0008B2
:100140008D1A00088D1A00088D1A00088D1A0008F3
:100150008D1A00088D1A0008B91900088D1A0008B8
:100160008D1A00088D1A00088D1A00080000000082
:100170008D1A00088D1A00088D1A00080000000072
:100180008D1A00088D1A00088D1A00088D1A0008B3
:100190008D1A00088D1A00088D1A00088D1A0008A3
:1001A0008D1A00088D1A00088D1A00080000000042
:1001B0008D1A00088D1A00088D1A00088D1A000883
:1001C0008D1A00088D1A00088D1A00088D1A000873
:1001D0008D1A00088D1A00088D1A00088D1A000863
:1001E0000000000000000000000000008D1A000860
:1001F0008D1A0008000000008D1A00088D1A0008F2
:100200008D1A00088D1A00088D1A00088D1A000832
:100210008D1A00088D1A0008000000008D1A0008D1
:100220000000000000000000000000008D1A00081F
:080230008D1A00088D1A000868
:1002380010B5054C237833B9044B13B10448AFF318
:1002480000800123237010BD0C0000200000000076
:1002580084E9000808B5034B1BB103490348AFF311
:10026800008008BD000000001000002084E900089C
:1002780080B584B000AF7860396012223968786838
:100288000DF080FA0346FB73FB7B002B0DD17B68D6
:10029800DB68194678680DF051FE0346FB73FB7B5B
:1002A800002B02D078680DF01FFEFB7B1846103734
:1002B800BD4680BD80B483B000AF7860364A7B68A5
:1002C8001360354B1B68DB7A0A2B28D801A252F839
:1002D80023F000BF090300082703000827030008CC
:1002E8002703000821030008270300082703000844
:1002F8002703000811030008270300081903000852
:10030800264B274A1A600AE0244B264A1A6006E060
:10031800224B254A1A6002E0204B244A1A601E4BE1
:100328001B681B7B0C2B31D801A252F823F000BFAD
:1003380075030008950300086D030008950300087D
:100348007D0300089503000895030008950300083D
:100358008503000895030008950300089503000825
:100368008D030008124B134A1A600FE0104B124A13
:100378001A600BE00E4B114A1A6007E00C4B104A4A
:100388001A6003E00A4B0F4A1A60FFE700BF0C37F8
:10039800BD465DF8047B7047280000203C00002023
:1003A80023DB793D23DBF93D23DB793E23DBF93E73
:1003B8004000002000008C4000000C4100008C41EF
:1003C80000000C4200008C4280B500AF00F0E0F95C
:1003D8000F2000F049F903466A2B01D000F0C2FD56
:1003E8000121122000F018F901210D2000F014F964
:1003F80002210E2000F010F90C4B1B689A7A0B4B67
:100408001B68DB7A1343DBB21946102000F004F9AD
:10041800064B1B689A7A054B1B681B7B1343DBB2A0
:100428001946112000F0F8F800BF80BD2800002010
:1004380080B592B000AF282000F03AF90346A7F83B
:1004480046302A2000F034F90346A7F844302C201F
:1004580000F02EF90346A7F84230292000F028F9C9
:100468000346A7F840302B2000F022F90346FB870B
:100478002D2000F01DF90346BB87B7F840301B025A
:100488001AB2B7F8463013437B87FB8F1B021AB2A8
:10049800B7F8443013433B87BB8F1B021AB2B7F837
:1004A80042301343FB86B7F93A3007EE903AB8EE7C
:1004B800E77A1A4BD3ED007A67EE277AFDEEE77AF2
:1004C80017EE903A1AB2164B1A80B7F9383007EE81
:1004D800903AB8EEE77A114BD3ED007A67EE277AB7
:1004E800FDEEE77A17EE903A1AB20D4B5A80B7F93B
:1004F800363007EE903AB8EEE77A084BD3ED007A3B
:1005080067EE277AFDEEE77A17EE903A1AB2044BB7
:100518009A8000BF4837BD4680BD00BF3C00002020
:100528002C00002080B592B000AF222000F0C0F867
:100538000346A7F84630242000F0BAF80346A7F887
:100548004430262000F0B4F80346A7F842302320B0
:1005580000F0AEF80346A7F84030252000F0A8F8D0
:100568000346FB87272000F0A3F80346BB87B7F8AC
:1005780040301B021AB2B7F8463013437B87FB8F13
:100588001B021AB2B7F8443013433B87BB8F1B02D8
:100598001AB2B7F842301343FB86B7F93A3007EE80
:1005A800903AB8EEE77A1A4BD3ED007A67EE277ADD
:1005B800FDEEE77A17EE903A1AB2164B1A80B7F9A1
:1005C800383007EE903AB8EEE77A114BD3ED007A5F
:1005D80067EE277AFDEEE77A17EE903A1AB20D4BDE
:1005E8005A80B7F9363007EE903AB8EEE77A084BFA
:1005F800D3ED007A67EE277AFDEEE77A17EE903AA8
:100608001AB2044B9A8000BF4837BD4680BD00BF70
:10061800400000203400002080B584B000AF0346BD
:100628000A46FB711346BB71FB791BB21B021BB256
:1006380003F4FE431AB2BB791BB213431BB29BB23D
:10064800FB8100F095F8074B1B68186807F10E014D
:100658006423012208F0ACFE00F09AF800BF1037BE
:10066800BD4680BD2800002080B586B002AF034695
:10067800FB71FB7963F07F03DBB21B029BB2BB818A
:1006880000F076F8094B1B68186807F10E0207F1AD
:100698000C0164230093012309F038FB00F078F87B
:1006A800FB89DBB218461037BD4680BD2800002004
:1006B80080B586B002AF0346FB71FB7963F07F0318
:1006C800DBB21B029BB2FB8100F052F8094B1B689E
:1006D800186807F10C0207F10E0164230093012347
:1006E80009F014FB00F054F8BB891BB21846103708
:1006F800BD4680BD2800002080B483B000AF78607C
:100708000B4BB3F900207B681A807B680233084AD8
:10071800B2F902201A807B680433054AB2F9042032
:100728001A8000BF0C37BD465DF8047B704700BFD8
:100738002C00002080B483B000AF78600B4BB3F975
:1007480000207B681A807B680233084AB2F90220CD
:100758001A807B680433054AB2F904201A8000BF66
:100768000C37BD465DF8047B704700BF340000209D
:1007780080B500AF054B1B685868044B1B681B8984
:100788000022194603F02EFA00BF80BD2800002081
:1007980080B500AF054B1B685868044B1B681B8964
:1007A8000122194603F01EFA00BF80BD2800002070
:1007B800F0B5ADF20C5D08AF01F066F97C4BD3F8EB
:1007C80094307B4A43F00403C2F89430784BD3F852
:1007D800943003F0040207F59D63A3F599631A604A
:1007E80007F59D63A3F599631B6807F2A4430022EC
:1007F8001A605A609A60DA606E4BC7F8A4346E4B80
:10080800C7F8A8346D4BC7F8AC340823A7F8B03440
:10081800042387F8B23407F2A443184600F0A8FB73
:1008280007F2944300221A605A609A60DA60644BB7
:10083800C7F89434634BC7F898340223A7F89C345C
:10084800402387F89E34042387F89F340C2387F8C5
:10085800A03407F294431846FFF72CFD00F0BEF8C9
:1008680000F0A8FA00F07AFA00F09CF900F008FA13
:1008780000F076F900F004F90BF080F807F515732D
:100888000122514918460CF037FF034687F8E73430
:1008980097F8E734002B01D000F064FB00F0BEFBB2
:1008A800FFF792FD07F1240348491846FFF7E0FCDB
:1008B800034687F8E73497F8E734002B01D000F0B7
:1008C80051FB07F12403424918460DF0B1FD07F129
:1008D800240318460DF088FA034687F8E73497F89A
:1008E800E734002B01D000F03DFB00F0BDFD0346CE
:1008F8001A46384B1A70374B1B78032BF5D107F57E
:100908009D63A3F59A63184600F0EEFB07F59D6317
:10091800A3F59B63184600F089FDFFF789FDFFF7F3
:1009280001FE07F28C431846FFF7E6FE07F2844300
:100938001846FFF7FFFE01F061F9014607F59D63D0
:10094800A3F59B635A6807F59D63A3F59A635B68F3
:10095800FB60B7F98C040446B7F98E040546B7F96D
:1009680090040646B7F98404B860B7F9860478603D
:10097800B7F98804034607F1240006937B680593BA
:10098800BB680493039602950194FB680093134691
:100998000A4611490DF04CFD07F1240318460DF0E5
:1009A80023FA642001F036F900F092FC9DE700BFBD
:1009B800000C02464C0100206C020020000002429C
:1009C800DC010020001C02429CE90008A0E90008A4
:1009D800ACE90008B8020020F8E9000880B59EB02C
:1009E80000AF07F118036022002118460DF099FFA7
:1009F8003B4600221A605A609A60DA601A615A61AE
:100A08004FF4003003F006F90346002B01D000F044
:100A1800A9FA3223BB614FF480737B624FF4805391
:100A28007B641023BB6201237B631023BB634FF0FD
:100A38008043FB6300233B6507F11803184603F066
:100A480085F90346002B01D000F08CFA1F233B6088
:100A580000237B600023BB600023FB6000233B6115
:100A680000237B613B460021184604F04BF80346FF
:100A7800002B01D000F076FA00BF7837BD4680BD64
:100A880080B588B000AF3B462022002118460DF003
:100A980048FF304B304A1A602E4B00225A602D4BCB
:100AA80000229A602B4B0022DA602A4B00225A61FE
:100AB800284B00221A61274B04229A61254B0022F9
:100AC8001A77244B002283F82420224B01229A62B1
:100AD800204B002283F82C201E4B00225A631D4B0A
:100AE80000229A631B4B002283F84020194B0022F6
:100AF8009A66184B00225A64164B00221A65154B49
:100B08000022DA63134B002283F85420114801F0C5
:100B1800A3FB0346002B01D000F024FA0F4B3B60E7
:100B280006237B600023BB604FF6FF73FB60042342
:100B38003B6100237B613B461946064801F056FE9F
:100B48000346002B01D000F00DFA00BF2037BD4648
:100B580080BD00BF44000020008002420080003EAB
:100B680080B500AF0D4B0E4A1A600C4B00225A603C
:100B78000A4B00229A60094B0022DA60074B0022D8
:100B88001A61064B3B225A61044806F049FF0346A6
:100B9800002B01D000F0E6F900BF80BDD000002096
:100BA80000800C4280B584B000AF3B1D00221A6063
:100BB8005A609A60304B314A1A602F4B4FF48002CA
:100BC8005A602D4B00229A602B4B0722DA602A4B81
:100BD80000221A61284B00225A61274B4FF080628D
:100BE8009A61254B0022DA61234B00221A62224BBC
:100BF80000225A62204B00229A621F4B0722DA62B7
:100C08001D4B4FF080425A631B4B00229A631A4BCC
:100C18000022DA63184B00229A64174B0022DA6428
:100C2800154B00221A65144B00225A65124B0022FC
:100C38009A65114B0022DA650F4B00221A660E489E
:100C480008F0A0FA0346002B01D000F08BF900232E
:100C58007B604FF08053BB600023FB603B1D19464F
:100C6800054809F09CFC0346002B01D000F07AF9F6
:100C780000BF1037BD4680BD4C0100200030014048
:100C880080B584B000AF3B1D00221A605A609A609C
:100C9800304B314A1A602F4B4FF480025A602D4B6B
:100CA80000229A602B4B0F22DA602A4B00221A612D
:100CB800284B00225A61274B4FF080629A61254BDE
:100CC8000022DA61234B00221A62224B00225A6268
:100CD800204B00229A621F4B0722DA621D4B4FF00D
:100CE80080425A631B4B00229A631A4B0022DA6334
:100CF800184B00229A64174B0022DA64154B002225
:100D08001A65144B00225A65124B00229A65114B42
:100D18000022DA650F4B00221A660E4808F032FAF4
:100D28000346002B01D000F01DF900237B604FF033
:100D38008053BB600023FB603B1D1946054809F042
:100D48002EFC0346002B01D000F00CF900BF103731
:100D5800BD4680BDDC0100200038004080B582B06F
:100D680000AF00F075FB0346FB80104B104A1A6079
:100D78000E4B27225A600D4B00229A60FB880B4AC3
:100D8800D3600A4B00221A61084B00225A61074BB4
:100D980000229A61054809F043FC0346002B01D064
:100DA80000F0E0F800BF0837BD4680BD6C020020A7
:100DB8000044014080B58AB000AF07F11403002257
:100DC8001A605A609A60DA601A61574BD3F88C300F
:100DD800554A43F00403C2F88C30534BD3F88C3097
:100DE80003F004033B613B694F4BD3F88C304E4A08
:100DF80043F08003C2F88C304B4BD3F88C3003F0AF
:100E08008003FB60FB68484BD3F88C30464A43F0BC
:100E18000103C2F88C30444BD3F88C3003F0010343
:100E2800BB60BB68404BD3F88C303F4A43F00203A9
:100E3800C2F88C303C4BD3F88C3003F002037B6053
:100E48007B68394BD3F88C30374A43F00803C2F833
:100E58008C30354BD3F88C3003F008033B603B688B
:100E680000224FF40051314802F0BCFE0022032159
:100E78002F4802F0B7FE00220C212E4802F0B2FEE5
:100E88004FF400537B610123BB610023FB61002306
:100E98003B6207F114031946244802F0CBFC0323F4
:100EA8007B610123BB610023FB6100233B6207F1E7
:100EB800140319461E4802F0BDFC09237B611E4B32
:100EC800BB610023FB6107F114031946174802F0C0
:100ED800B1FC0C237B610123BB610023FB61002370
:100EE8003B6207F114031946124802F0A3FC0123E0
:100EF8007B61114BBB610023FB6107F114031946A9
:100F08000C4802F097FC02237B610B4BBB6100236A
:100F1800FB6107F114031946064802F08BFC00BF79
:100F28002837BD4680BD00BF000C024600080242BB
:100F3800001C0242000002420000111080B582B07D
:100F480000AF78607B68064A934204D1044809F0F0
:100F58005FFC00F049FA00BF0837BD4680BD00BFFE
:100F68006C02002080B400AF72B600BF00BFFDE77E
:100F780080B483B000AF7860244A7B681360234B49
:100F88001B689B7B43F04003DAB2214B1A701F4B5E
:100F98001B689B7B43F05003DAB21E4B1A701B4B45
:100FA8001B689B7B082B2BD801A252F823F000BFAB
:100FB800DD0F000809100008E50F000809100008F7
:100FC800ED0F000809100008F50F000809100008C7
:100FD800FF0F0008104B32221A8011E00E4B6E22D0
:100FE8001A800DE00C4BD2221A8009E00A4B4FF40C
:100FF800CD721A8004E0084B40F236321A80FFE7BF
:1010080000BF0C37BD465DF8047B7047BC0200206A
:10101800D8020020D9020020D602002080B500AFF7
:1010280000F0D2F900F0C0F9094B1B681868642376
:101038000122084908F0BCF900F0C6F9032000F0C5
:10104800E9FD00F00BF8044B03221A7000BF80BDC5
:10105800BC0200207DEA0008D402002080B584B0DC
:1010680000AF1F4BBB600123FB7330E097F90F30D3
:101078005B005BB263F05F035BB2DBB2FB7100F055
:1010880093F9184B1B681868F91D6423012208F0AE
:101098008FF9144B1B681868391D6423022208F065
:1010A8009BFB00F091F93B791BB21B021AB27B79CA
:1010B8001BB2134319B2FB7B03F10043013B5B00F6
:1010C800BA6813448AB21A80FB7B0133FB73FB7B3B
:1010D800062BCBD900BF00BF1037BD4680BD00BF6F
:1010E800C0020020BC0200202DE9B00FA5B000AF5F
:1010F8007866754B1B68C7F88C30734B5B68C7F80C
:101108008830724B1B891A02D7F88C309B1AC7F8A3
:1011180084306E4B5B89DA05D7F8843002FB03F321
:1011280003F5FA63C7F88030684B5B889BB20022EE
:101138003B647A64D7E910120B46DB0BFB630B4662
:101148005B04BB63614BDB889BB20022BB65FA651D
:10115800D7F88430DA173B657A65D7E916010B466C
:101168003A6D02FB03F27B6DC7E91601014601FBEC
:1011780003F31344BA6D396DA2FB01452B441D4698
:101188004FF000024FF00003A20942EA8562AB115A
:10119800D7E90E4521468918B960294643EB010174
:1011A800F960D7E90234C7E91E34484B1B889BB263
:1011B80000223B637A63D7E90C120B461B0CFB62D7
:1011C8000B461B04BB62414B9B889BB200223B62CF
:1011D8007A62D7F88430DA17BB64FA64D7E9080171
:1011E8000B46D7E91245224602FB03F2C7E912452E
:1011F8002B4604460D46214601FB03F313442246C1
:10120800B96CA2FB01AB5B449B464FF000024FF068
:1012180000034FEADA1242EA4B624FEAEB13D7E9CE
:101228000A45214689183960294643EB010179604E
:10123800D7E90034C7E91C34D7F888300022BB61ED
:10124800FA613B6FD7E906452A4602FB03F27B6F3A
:10125800214601FB03F313443A6F2146A2FB01899F
:101268004B4499464FF000024FF000034FEA5852A2
:1012780042EAC9224FEA6953D7E91E01141A3C61B0
:1012880063EB01037B614FF000024FF00003D7E9E5
:1012980004452146CA0B294642EA41422946CB1356
:1012A8001346FB66D7F88030BB667B6E1A4607F19B
:1012B800680393E8030082E80300786E9437BD461C
:1012C800BDE8B00F704700BFCC020020C00200206C
:1012D80080B500AF0B4B01221A7000F065F80A4B7D
:1012E8001B68186864230122084908F061F800F0B7
:1012F8006BF8054B1B685B68184609F0E9F900BFF5
:1013080080BD00BFD4020020BC020020D80200200B
:1013180080B500AF0B4B02221A7000F045F80A4B5B
:101328001B68186864230122084908F041F800F096
:101338004BF8054B1B685B68184609F0C9F900BFF4
:1013480080BD00BFD4020020BC020020D9020020CA
:1013580080B582B000AF3B1D00210A461A800A46BC
:101368009A7000F021F80E4B1B681868642301225C
:101378000C4908F01DF80A4B1B681868391D6423CE
:10138800032208F029FA00F01FF83B791A047B7948
:101398001B021343BA79134318460837BD4680BD6C
:1013A800BC0200207CEA000880B500AF054B1B6832
:1013B8009868044B1B689B890022194602F012FCAE
:1013C80000BF80BDBC02002080B500AF054B1B6884
:1013D8009868044B1B689B890122194602F002FC9D
:1013E80000BF80BDBC02002080B582B000AFFFF70F
:1013F800AFFF78600B4B1B78012B05D10A4A7B683D
:101408005360FFF785FF09E0064B1B78022B05D1D7
:10141800054A7B681360034B03221A7000BF083724
:10142800BD4680BDD4020020CC02002080B483B029
:1014380000AF78607B68054A92E8030083E8030000
:1014480078680C37BD465DF8047B7047CC020020F5
:1014580080B400AF034B1B881846BD465DF8047B7B
:10146800704700BFD602002080B400AF034B1B7842
:101478001846BD465DF8047B704700BFD4020020C3
:1014880080B582B000AF0A4BD3F89430084A43F0D5
:101498000403C2F89430064BD3F8943003F00403E5
:1014A8007B607B6802F042FC00BF0837BD4680BD08
:1014B800000C024680B5BCB000AF786007F1DC03D1
:1014C80000221A605A609A60DA601A6107F11803FC
:1014D800C022002118460DF024FA7B681B68334AA5
:1014E80093425ED14FF400424FF00003C7E9062350
:1014F8004FF48043C7F8B83007F11803184603F0D3
:10150800D1FE0346002B01D0FFF72CFD284BD3F862
:101518008C30274A43F48063C2F88C30244BD3F8CC
:101528008C3003F480637B617B69214BD3F88C306A
:101538001F4A43F00103C2F88C301D4BD3F88C309E
:1015480003F001033B613B69194BD3F88C30184A0F
:1015580043F00203C2F88C30154BD3F88C3003F0FB
:101568000203FB60FB680323C7F8DC300323C7F8DA
:10157800E0300023C7F8E43007F1DC0319460D48D2
:1015880002F058F90323C7F8DC300323C7F8E0302A
:101598000023C7F8E43007F1DC031946064802F0D7
:1015A80049F900BFF037BD4680BD00BF0080024248
:1015B800000C0246000002420004024280B5BCB0A2
:1015C80000AF786007F1DC0300221A605A609A6065
:1015D800DA601A6107F11803C022002118460DF0DD
:1015E800A0F97B681B68464A934240F084804FF418
:1015F80040124FF00003C7E906230023C7F8B030B4
:101608000023C7F8B43007F11803184603F04AFE60
:101618000346002B01D0FFF7A5FC3A4BD3F88C30DA
:10162800384A43F00063C2F88C30364BD3F88C301C
:1016380003F000637B617B69324BD3F88C30314A0D
:1016480043F00403C2F88C302E4BD3F88C3003F0EF
:1016580004033B613B692B4BD3F88C30294A43F098
:101668000803C2F88C30274BD3F88C3003F00803FA
:10167800FB60FB684FF48073C7F8DC300223C7F8BF
:10168800E0300123C7F8E4300223C7F8E8300C2320
:10169800C7F8EC3007F1DC0319461B4802F0CAF81A
:1016A8004FF48053C7F8DC300223C7F8E03000233A
:1016B800C7F8E4300223C7F8E8300C23C7F8EC3049
:1016C80007F1DC031946104802F0B4F80423C7F800
:1016D800DC300223C7F8E0300123C7F8E4300223E6
:1016E800C7F8E8300C23C7F8EC3007F1DC031946DB
:1016F800064802F09FF800BFF037BD4680BD00BF26
:1017080000800C42000C024600080242000C024213
:1017180080B5BEB000AF786007F1E40300221A601C
:101728005A609A60DA601A6107F12003C02200212A
:1017380018460DF0F6F87B681B686B4A934247D150
:101748004FF400024FF00003C7E908234FF4801359
:10175800C7F8CC3007F12003184603F0A3FD034671
:10176800002B01D0FFF7FEFB604BD3F8A4305F4A93
:1017780043F48053C2F8A4305C4BD3F8A43003F48C
:101788008053FB61FB69594BD3F88C30574A43F0BF
:101798000103C2F88C30554BD3F88C3003F00103A9
:1017A800BB61BB69E023C7F8E4300223C7F8E8301F
:1017B8000023C7F8EC300023C7F8F0300523C7F83A
:1017C800F43007F1E4031946494802F033F886E09B
:1017D8007B681B68474A934240F081804FF08072D3
:1017E8004FF00003C7E908234FF48033C7F8D0301F
:1017F80007F12003184603F055FD0346002B01D0DE
:10180800FFF7B0FB394BD3F89C30384A43F4804398
:10181800C2F89C30354BD3F89C3003F480437B618D
:101828007B69324BD3F88C30304A43F00403C2F85A
:101838008C302E4BD3F88C3003F004033B613B69AA
:101848002A4BD3F88C30294A43F00203C2F88C3073
:10185800264BD3F88C3003F00203FB60FB680223AD
:10186800C7F8E4300223C7F8E8300023C7F8EC30A3
:101878000023C7F8F0300323C7F8F43007F1E40376
:1018880019461D4801F0D6FF0423C7F8E4300223A7
:10189800C7F8E8300023C7F8EC300023C7F8F03069
:1018A8000523C7F8F43007F1E4031946124801F09C
:1018B800C1FF4FF48063C7F8E4300223C7F8E8306B
:1018C8000023C7F8EC300023C7F8F0300523C7F829
:1018D800F43007F1E4031946084801F0ABFF00BFF4
:1018E800F837BD4680BD00BF00300140000C0246FD
:1018F8000000024200380040000802420004024290
:1019080080B584B000AF78607B681B680E4A93424C
:1019180016D10E4BD3F8A4300C4A43F40033C2F866
:10192800A4300A4BD3F8A43003F40033FB60FB68FF
:1019380000220021462001F0A1FE462001F0B8FE59
:1019480000BF1037BD4680BD00440140000C024670
:1019580080B400AF00BFFDE780B400AF00BFFDE773
:1019680080B400AF00BFFDE780B400AF00BFFDE763
:1019780080B400AF00BFFDE780B400AF00BFBD4634
:101988005DF8047B704780B400AF00BFBD465DF8CA
:10199800047B704780B400AF00BFBD465DF8047B90
:1019A800704780B500AF00F015F900BF80BD00009A
:1019B80080B500AF024808F05AFF00BF80BD00BFE5
:1019C8006C02002080B400AF184BD3F88830174A57
:1019D80043F47003C2F88830154B01221A60144B87
:1019E8000022DA61124B00221A62114B00225A625D
:1019F8000F4B1B680E4A23F0A85323F410231360DF
:101A08000B4B00229A620A4B1B68094A23F4802375
:101A18001360074B00221A65044B4FF000629A606E
:101A280000BFBD465DF8047B704700BF00ED00E0D5
:101A3800000C02460D488546FFF7C4FF0C480D49C7
:101A48000D4A002302E0D458C4500433C4188C4211
:101A5800F9D30A4A0A4C002301E013600432A24277
:101A6800FBD30CF067FFFEF7A3FEFEE7000004209F
:101A7800000000200A000020F4EB00080C00002001
:101A88001C030020FEE7000080B500AF124B1B6866
:101A9800114A43F480731360032001F0E4FD03F05E
:101AA80023FA02460D4B1B6A03F00F030C49CB5C6B
:101AB80022FA03F30B4A1360042001F029FE0F20D9
:101AC80000F012F80346002B01D0012302E0FFF7D3
:101AD800D7FC0023184680BD00200240000C0246B7
:101AE80080EA00080000002080B584B000AF78606C
:101AF8000023FB60334B1B78002B01D101235CE0F2
:101B0800314B1B6803F00403042B0CD12F4B1A68CC
:101B18002C4B1B7819464FF47A73B3FBF1F3B2FBE5
:101B2800F3F3FB6037E001F04BFEB860BB68022BB3
:101B380023D0BB68022B2DD8BB68002B03D0BB6811
:101B4800012B0DD026E0214B1A681E4B1B78194635
:101B58004FF4FA53B3FBF1F3B2FBF3F3FB601AE073
:101B6800184B1B781A464FF47A73B3FBF2F34FF411
:101B7800FA42B2FBF3F3FB600DE0124B1B781A46F6
:101B88004FF47A73B3FBF2F34FF40042B2FBF3F372
:101B9800FB6000E000BFF86801F098FD0346002BE9
:101BA80001D0012309E0002279684FF0FF3001F0ED
:101BB80065FD074A7B681360002318461037BD4649
:101BC80080BD00BF0800002010E000E000000020F9
:101BD8000400002080B400AF064B1B781A46064B61
:101BE8001B681344044A136000BFBD465DF8047BBC
:101BF800704700BF08000020DC02002080B400AF5E
:101C0800034B1B681846BD465DF8047B704700BF50
:101C1800DC02002080B584B000AF7860FFF7EEFFEB
:101C2800B8607B68FB60FB68B3F1FF3F05D00A4BE7
:101C38001B781A46FB681344FB6000BFFFF7DEFF02
:101C48000246BB68D31AFA689A42F7D800BF00BFA9
:101C58001037BD4680BD00BF0800002080B400AF2B
:101C6800044B1B681B0C9BB21846BD465DF8047BF1
:101C7800704700BF004004E080B483B000AF7860D4
:101C880039607B681B6823F470123B681A437B68D1
:101C98001A6000BF0C37BD465DF8047B704780B4FE
:101CA80083B000AF786039607B681B6823F0E0720E
:101CB8003B681A437B681A6000BF0C37BD465DF865
:101CC800047B704780B483B000AF78607B681B6882
:101CD80003F0E07318460C37BD465DF8047B704787
:101CE80080B485B000AF786039603B68FB607B6882
:101CF8000A4A934204D1FB68013B03F00C03FB60E2
:101D08007B68DB6823F00C02FB681A437B68DA60A7
:101D180000BF1437BD465DF8047B704700100246CB
:101D280080B487B000AFF860B9607A603B60FB6848
:101D380060331A46BB689B0013447B617B691B6850
:101D480003F0E0627B685B0003F078413B680B437B
:101D58001A437B691A6000BF1C37BD465DF8047BD7
:101D6800704780B485B000AF786039607B686033B5
:101D78001A463B689B001344FB60FB681B68DB0E3C
:101D880003F01F03BB60BB68092B07D8BB689A0622
:101D98000121BB6801FA03F3134308E0BB689A0604
:101DA8000121BB6801FA03F3134343F0007318469B
:101DB8001437BD465DF8047B704780B487B000AF28
:101DC800F860B9607A60FB6860331A46BB689B00AC
:101DD80013447B617B691B6823F080727B681A431C
:101DE8007B691A6000BF1C37BD465DF8047B7047ED
:101DF80080B487B000AFF860B9607A60FB68603380
:101E08001A46BB689B0013447B617B691B6823F0FF
:101E180080627B681A437B691A6000BF1C37BD4625
:101E28005DF8047B704780B487B000AFF860B96094
:101E38007A60FB6860331A46BB689B0013447B6179
:101E48007B691B6823F000727B681A437B691A6000
:101E580000BF1C37BD465DF8047B704780B483B073
:101E680000AF786039607B681B6F23F47F5323F0E1
:101E78003F033A681A437B681A677B681B6F23F035
:101E880000433A68002A02D04FF0004200E00022E6
:101E98001A437B681A6700BF0C37BD465DF8047BA0
:101EA800704780B485B000AFF860B9607A60FB68AD
:101EB8005A69BB6803F00403072101FA03F3DB4303
:101EC8001A40BB6803F00403796801FA03F31A4364
:101ED800FB685A6100BF1437BD465DF8047B704744
:101EE80080B489B000AFF860B9607A60FB682B4AAB
:101EF800934220D0FB6830331A46BB681B0A9B000C
:101F080003F00C031344FB61FB691A68BB6803F018
:101F18001F031F2101FA03F3DB431A407B689B0E62
:101F280003F01F01BB6803F01F0301FA03F31A4310
:101F3800FB691A602BE0FB689A6ABB6803F01F0311
:101F48000F2101FA03F3DB431A407B6823F07F4338
:101F5800002B04D17B689B0E03F01F0310E07B6805
:101F68007B617B6993FAA3F33B613B69BB61BB6906
:101F7800002B01D1202303E0BB69B3FA83F3DBB262
:101F8800B96801F01F018B401A43FB689A6200BFD1
:101F98002437BD465DF8047B704700BF0010024639
:101FA80080B487B000AF786039603B6823F07F4326
:101FB800002B07D13B689B0E03F01F03012202FA96
:101FC80003F315E03B683B613B6993FAA3F3FB60BD
:101FD800FB687B617B69002B01D1202303E07B69CF
:101FE800B3FA83F3DBB203F01F03012202FA03F30F
:101FF8007A68926A1A437B689A6200BF1C37BD46AA
:102008005DF8047B704780B483B000AF78603960B6
:102018007B689A6A3B689B0E03F01F03012101FA53
:1020280003F3DB431A407B689A6200BF0C37BD4656
:102038005DF8047B7047000080B48BB000AFF86097
:10204800B9607A60FB682D4A934242D0BB6823F09E
:102058007F43002B04D1BB689B0E03F01F0211E0E5
:10206800BB68BB61BB6993FAA3F37B617B69FB61C6
:10207800FB69002B01D1202303E0FB69B3FA83F34A
:10208800DBB21A46BB685B0E03F001010B469B00EE
:102098000B445B00D21A13465B0013447B62FB6857
:1020A80014331A46BB685B0E9B0003F00403134409
:1020B8003B623B6A1A6807217B6A01FA03F3DB4338
:1020C8001A4079687B6A01FA03F31A433B6A1A607B
:1020D8000EE0FB685A69BB681B02DB431A40BB6809
:1020E80019027B680B4023F0FF031A43FB685A610F
:1020F80000BF2C37BD465DF8047B704700100246D0
:1021080080B485B000AFF860B9607A60FB68D3F836
:10211800C020BB6823F07F43DB431A407B6803F091
:1021280018030849D940BB680B4023F07F431A4382
:10213800FB68C3F8C02000BF1437BD465DF8047BB8
:10214800704700BFFFFF0F0080B483B000AF786016
:102158007B689B6823F0204323F03F037A689360F1
:1021680000BF0C37BD465DF8047B704780B483B070
:1021780000AF78607B689B6803F00053B3F1005FA1
:1021880001D1012300E0002318460C37BD465DF855
:10219800047B704780B483B000AF78607B689B682D
:1021A80023F0104323F03F0343F080527B689A608A
:1021B80000BF0C37BD465DF8047B704780B483B020
:1021C80000AF78607B689B6803F08053B3F1805F51
:1021D80001D1012300E0002318460C37BD465DF805
:1021E800047B704780B483B000AF78607B689B68DD
:1021F80003F00103012B01D1012300E0002318465D
:102208000C37BD465DF8047B704780B483B000AFDF
:1022180078607B689B6803F00403042B01D10123D9
:1022280000E0002318460C37BD465DF8047B704774
:1022380080B483B000AF78607B689B6803F00803C4
:10224800082B01D1012300E0002318460C37BD46B6
:102258005DF8047B7047000080B58AB000AF7860F5
:10226800002387F8273000233B620023FB617B684B
:10227800002B01D10123B3E27B681B69002B03D03B
:102288007B681B688B4A93427B689B6F002B09D144
:102298007868FFF70FF97B680022DA677B6800220D
:1022A80083F874207B681B681846FFF75FFF0346B6
:1022B800002B04D07B681B681846FFF745FF7B6836
:1022C8001B681846FFF77AFF0346002B15D17B6879
:1022D8001B681846FFF75EFF774B1B689B09774A18
:1022E800A2FB03239B0901335B00FB6002E0FB6850
:1022F800013BFB60FB68002BF9D17B681B68184623
:10230800FFF75CFF0346002B0ED17B689B6F43F001
:1023180010027B689A677B68DB6F43F001027B6879
:10232800DA67012387F827307B681B681846FFF7B0
:102338006CFFB8617B689B6F03F01003002B40F0C3
:102348004482BB69002B40F040827B689B6F23F47A
:10235800817343F002027B689A677B681B681846A2
:10236800FFF740FF0346002B40D17B681B68514AAA
:10237800934228D07B681B68514A934209D1504840
:10238800FFF730FF0346002B0CBF01230023DBB20D
:1023980008E04848FFF726FF0346002B0CBF01233F
:1023A8000023DBB2002B21D07B681B68444A934290
:1023B80001D1444A00E0444A7B685B6819461046EC
:1023C800FFF75AFC12E07B681A687B689B6819461D
:1023D8001046FFF785FC3C4B1B6823F470127B68A2
:1023E8005B6803F47013384913430B607B681B6800
:1023F800304A934210D07B6893F824305A037B68A4
:102408005B6C1A437B689B681A437B6893F82C3093
:102418001B0413433B6230E07B681B7F9A037B6895
:1024280093F824305B0313437A68526C002A02D075
:102438004FF4805200E000221A437B685B691A431C
:102448007B681B69002B04DA7B681B6923F0004357
:1024580001E04FF400131A437B681B6818498B424C
:1024680003D17B6893F8403003E07B6893F84030F1
:102478005B0013433A6A13433B627B6893F82C3042
:10248800012B2FD17B681B680A4A934207D07B68CF
:102498001B6B013B5B043A6A13433B6222E07B6897
:1024A80093F82430002B11D13B6A43F480333B620C
:1024B80018E000BF0010024600000020632D3E0512
:1024C8000080024208830242081302467B689B6F21
:1024D80043F020027B689A677B68DB6F43F0010258
:1024E8007B68DA677B681B68924A934218D07B68DE
:1024F8005B6B002B09D07B685B6B03F478727B689D
:102508009B6B13433A6A13433B627B681B68DA6828
:10251800894B13407A681268396A0B43D36031E0FB
:102528007B685B6B002B09D07B685B6B03F4E07204
:102538007B689B6B13433A6A13433B627B681B6857
:10254800DA687E4B13407A681268396A0B43D360A5
:102558007B681B6A002B08D07B681B68596C7B68FA
:102568001A6A7B681B680A435A647B68DB6E002B17
:1025780008D07B681B68596C7B68DA6E7B681B68BF
:102588000A435A647B681B686A4A934200F0938046
:102598007B681B681846FFF738FE78617B681B6804
:1025A8001846FFF745FE38617B69002B61D13B690E
:1025B800002B5ED17B681B7F9A037B681B68604990
:1025C8008B4202D17B68DB6B02E07B68DB6B5B00D4
:1025D80013433B627B681B68DB6823F4804323F06A
:1025E80003037A681268396A0B43D3607B68DB6837
:1025F800002B07D07B681A687B68DB681946104691
:10260800FFF72CFC7B6893F85430012B1ED17B68B4
:102618005B6B002B7B681B681A694A4B13407A680E
:10262800926D11047A68D26D11437A68126E114363
:102638007A68526E11437A68926E92080A431A4376
:102648007B681B6842F001021A6107E07B681B681F
:102658001A697B681B6822F001021A617B681B6893
:102668001B6923F070417B681A6D7B681B680A43FD
:102678001A617B681B69012B0CD17B681B681B6B7B
:1026880023F00F017B689B6A5A1E7B681B680A430C
:102698001A6307E07B681B681A6B7B681B6822F06B
:1026A8000F021A637B689B6F23F0030343F0010258
:1026B8007B689A6792E07B6893F85430012B11D1BC
:1026C8007B689A6D7B68DB6D1A437B681B6E1A43C7
:1026D8007B689B6E1343FA691343FB61FB6943F004
:1026E8000103FB617B681B681A69174B13407A6802
:1026F8001268F9690B4313617B6818687B689B6CE7
:102708001A460021FFF7CDFB7B6818687B68DB6CF5
:102718001A466FF0FB01FFF7C4FB7B681B69002BAF
:1027280014D17B681B689A6A7B681B6862F00F0289
:102738009A6224E00010024613C0F0FF0D80DEFF0D
:10274800008002421EF800FC02FCFFF77B681B6950
:10275800B3F5001F13D17B681B689B6A7B689B6A73
:10276800013B9B0003F01C036FF00F0202FA03F118
:102778007B68D3F888207B681B680A439A627B6869
:102788001B68DA68184B13403A6A9A420BD17B6887
:102798000022DA677B689B6F23F0030343F0010292
:1027A8007B689A671AE07B689B6F23F0120343F0FB
:1027B80010027B689A677B68DB6F43F001027B68D5
:1027C800DA67012387F8273008E07B689B6F43F0BE
:1027D80010027B689A67012387F8273097F827301B
:1027E80018462837BD4680BDF3FF3F8380B5BCB08F
:1027F80000AF78603960002387F8EF300023BB60B2
:102808007B681B68A84A934203D17B681B69B3F1B4
:10281800004F7B6893F87430012B02D1022300F03B
:102828006DBE7B68012283F874207B681B6818469C
:10283800FFF7EBFC0346002B40F04D867B681B68D6
:10284800994A934200F0EA833B681B6823F07F4370
:10285800002B08D13B681B689B0E03F01F03012265
:1028680002FA03F31DE03B681B68C7F8D030D7F8BD
:10287800D03093FAA3F3C7F8CC30D7F8CC30C7F8E8
:10288800D430D7F8D430002B01D1202304E0D7F876
:10289800D430B3FA83F3DBB203F01F03012202FA48
:1028A80003F37A681268D1697A6812680B43D361B6
:1028B8007B6818683B6859683B681B681A46FFF7CD
:1028C8000FFB7B681B681846FFF79FFCC7F8E00002
:1028D8007B681B681846FFF7ABFCC7F8DC00D7F825
:1028E800E030002B40F0ED81D7F8DC30002B40F0D1
:1028F800E8817B6818683B6819683B689B681A46DA
:10290800FFF79AFB3B685A697B681B68DB689B0882
:1029180003F003035B0002FA03F3C7F8D8303B68FF
:102928001B69042B46D07B6818683B6819693B68AB
:102938001A68D7F8D830FFF7F3F97B6818683B684E
:1029480019693B68DB691A46FFF737FA3B689B7ED3
:10295800012B1ED17B6818683B6819693B685B7E50
:10296800002B02D14FF0007300E000231A46FFF756
:102978005AFA7B6818683B6819693B685B7E012BCB
:1029880002D14FF0806300E000231A46FFF730FAC7
:1029980097E17B6818683B681B6900221946FFF7B6
:1029A80042FA7B6818683B681B6900221946FFF7E2
:1029B8001FFA86E17B681B6800211846FFF7D1F9EA
:1029C800034623F07F43002B0AD17B681B68002154
:1029D8001846FFF7C6F903469B0E03F01F021EE0D8
:1029E8007B681B6800211846FFF7BBF90346C7F848
:1029F800C430D7F8C43093FAA3F3C7F8C030D7F877
:102A0800C030C7F8C830D7F8C830002B01D1202310
:102A180004E0D7F8C830B3FA83F3DBB21A463B6850
:102A28001B6823F07F43002B05D13B681B689B0E76
:102A380003F01F0318E03B681B68C7F8B830D7F8E5
:102A4800B83093FAA3F3C7F8B430D7F8B430C7F85E
:102A5800BC30D7F8BC30002B01D1202304E0D7F8D4
:102A6800BC30B3FA83F3DBB29A4207D17B681868AB
:102A78003B681A6800230021FFF752F97B681B683E
:102A880001211846FFF76DF9034623F07F43002B19
:102A98000CD17B681B6801211846FFF762F90346D1
:102AA8009B0E03F01F0220E0001002467B681B68A3
:102AB80001211846FFF755F90346C7F8AC30D7F897
:102AC800AC3093FAA3F3C7F8A830D7F8A830C7F802
:102AD800B030D7F8B030002B01D1202304E0D7F86C
:102AE800B030B3FA83F3DBB21A463B681B6823F0B5
:102AF8007F43002B05D13B681B689B0E03F01F0327
:102B080018E03B681B68C7F8A030D7F8A03093FAE4
:102B1800A3F3C7F89C30D7F89C30C7F8A430D7F88F
:102B2800A430002B01D1202304E0D7F8A430B3FA55
:102B380083F3DBB29A4207D17B6818683B681A684E
:102B480000230121FFF7ECF87B681B680221184677
:102B5800FFF707F9034623F07F43002B0AD17B6870
:102B68001B6802211846FFF7FCF803469B0E03F08A
:102B78001F021EE07B681B6802211846FFF7F1F868
:102B88000346C7F89430D7F8943093FAA3F3C7F8FC
:102B98009030D7F89030C7F89830D7F89830002B95
:102BA80001D1202304E0D7F89830B3FA83F3DBB2DD
:102BB8001A463B681B6823F07F43002B05D13B680E
:102BC8001B689B0E03F01F0318E03B681B68C7F8DF
:102BD8008830D7F8883093FAA3F3C7F88430D7F849
:102BE8008430C7F88C30D7F88C30002B01D12023E3
:102BF80004E0D7F88C30B3FA83F3DBB29A4207D1FA
:102C08007B6818683B681A6800230221FFF788F878
:102C18007B681B6803211846FFF7A3F8034623F0D7
:102C28007F43002B0AD17B681B6803211846FFF7F6
:102C380098F803469B0E03F01F021AE07B681B6896
:102C480003211846FFF78DF80346FB67FB6F93FADD
:102C5800A3F3BB67BB6FC7F88030D7F88030002B71
:102C680001D1202304E0D7F88030B3FA83F3DBB234
:102C78001A463B681B6823F07F43002B05D13B684D
:102C88001B689B0E03F01F0311E03B681B683B6742
:102C98003B6F93FAA3F3FB66FB6E7B677B6F002B9E
:102CA80001D1202303E07B6FB3FA83F3DBB29A42AE
:102CB80007D17B6818683B681A6800230321FFF76F
:102CC8002FF87B681B681846FFF78CFA0346002B21
:102CD80040F00E847B6818683B6819683B68DB68BD
:102CE8001A46FFF70DFA3B68DB6813F5803F40F0A2
:102CF800D6803B681B6823F07F43002B0BD13B68D1
:102D08001B689B0E013303F01F03092B94BF01239B
:102D18000023DBB219E03B681B687B667B6E93FA85
:102D2800A3F33B663B6EBB66BB6E002B01D1202331
:102D380003E0BB6EB3FA83F3DBB2013303F01F0386
:102D4800092B94BF01230023DBB2002B4DD03B6835
:102D58001B6823F07F43002B07D13B681B689B0E41
:102D680001339B0603F0F84215E03B681B68BB651E
:102D7800BB6D93FAA3F37B657B6DFB65FB6D002B45
:102D880001D1202303E0FB6DB3FA83F3DBB20133F7
:102D98009B0603F0F8423B681B6823F07F43002B37
:102DA80009D13B681B689B0E013303F01F03012107
:102DB80001FA03F317E03B681B68FB64FB6C93FAAA
:102DC800A3F3BB64BB6C3B653B6D002B01D1202397
:102DD80003E03B6DB3FA83F3DBB2013303F01F0367
:102DE800012101FA03F313434EE03B681B6823F00B
:102DF8007F43002B07D13B681B689B0E01339B0662
:102E080003F0F84215E03B681B683B643B6C93FA9F
:102E1800A3F3FB63FB6B7B647B6C002B01D120234A
:102E280003E07B6CB3FA83F3DBB201339B0603F058
:102E3800F8423B681B6823F07F43002B09D13B68AD
:102E48001B689B0E013303F01F03012101FA03F3F2
:102E580017E03B681B687B637B6B93FAA3F33B63C8
:102E68003B6BBB63BB6B002B01D1202303E0BB6B27
:102E7800B3FA83F3DBB2013303F01F03012101FA34
:102E880003F3134343F00073C7F8E8307B6818680E
:102E98003B689B681A46D7F8E810FFF7CDF83B68FF
:102EA8001B68002B80F224837B681B68994A934235
:102EB80001D1994B00E0994B1846FEF703FFC7F87C
:102EC800E4007B681B68934A934209D19148FFF755
:102ED80089F90346002B0CBF01230023DBB208E06D
:102EE8008F48FFF77FF90346002B0CBF012300230F
:102EF800DBB2002B00F088803B681B68894A93424C
:102F080032D1D7F8E43003F40003002B2CD17B68CE
:102F18001B68804A934205D07B681B68804A9342AD
:102F280040F0E3827B681B687A4A934201D17A4A6F
:102F380000E07A4AD7F8E43043F400031946104613
:102F4800FEF7ADFE784B1B689B09784AA2FB03236A
:102F58009B0901335B00BB6002E0BB68013BBB60BF
:102F6800BB68002BF9D1C0E23B681B68704A9342EA
:102F780021D1D7F8E43003F08073002B1BD17B6894
:102F88001B68644A934205D07B681B68644A934275
:102F980040F0AD827B681B685E4A934201D15E4A6D
:102FA80000E05E4AD7F8E43043F0807319461046D3
:102FB800FEF775FE9BE23B681B685E4A934240F051
:102FC8009782D7F8E43003F48003002B40F0908216
:102FD8007B681B684F4A934205D07B681B68504A40
:102FE800934240F085827B681B684A4A934201D12C
:102FF800494A00E0494AD7F8E43043F480031946C7
:103008001046FEF74CFE73E27B689B6F43F020028C
:103018007B689A67012387F8EF3069E23B681B6891
:10302800C7F8E8303B685B68022B00F091817B6849
:103038001B69B3F1004F04D07B681B693E4A934279
:1030480007D17B681B68D7F8E8101846FEF7A8FF79
:10305800B0E07B68D3F888203B685B6803F01F0307
:103068000F2101FA03F3DB431A40D7F8E83023F0C5
:103078007F43002B05D1D7F8E8309B0E03F01F03E0
:1030880011E0D7F8E830BB62BB6A93FAA3F37B621E
:103098007B6AFB62FB6A002B01D1202303E0FB6AF9
:1030A800B3FA83F3DBB23968496801F01F018B403A
:1030B8001A437B68C3F888203B685B689B085A1CE6
:1030C8007B689B6A9A4275D8FEF7C8FD0346B3F53C
:1030D800805F66D8D7F8E83023F07F43002B0AD109
:1030E800D7F8E8309B0E03F01F03132B8CBF012386
:1030F8000023DBB22BE0D7F8E830FB61FB6993FAD9
:10310800A3F3BB61BB693B623B6A002B16D120234A
:1031180018E000BF008002420883024208130246FA
:1031280000100246000008CE00000020632D3E0576
:10313800000004CA01000080100000803B6AB3FA56
:1031480083F3DBB2132B8CBF01230023DBB2002BEC
:1031580027D0D7F8E83023F07F43002B09D1D7F8E0
:10316800E8309B0E03F01F03093B012202FA03F328
:1031780015E0D7F8E8303B613B6993FAA3F3FB60AD
:10318800FB687B617B69002B01D1202303E07B690D
:10319800B3FA83F3DBB2093B012202FA03F3C7F85F
:1031A800E8307B6818683B685B68D7F8E820194600
:1031B800FEF796FE7B6818683B689B681A46D7F846
:1031C800E810FEF739FF3B681B68002B80F29081FE
:1031D8007B681B68974A934201D1974B00E0974B55
:1031E8001846FEF76FFDC7F8E4003B681B68944A71
:1031F800934226D1D7F8E43003F40003002B20D102
:103208007B681B688B4A934201D18B4A00E08B4A4A
:10321800D7F8E43043F4000319461046FEF73FFDA3
:10322800884B1B689B09884AA2FB03239B095B0008
:10323800BB6002E0BB68013BBB60BB68002BF9D1F7
:1032480067E03B681B68814A934216D1D7F8E4309F
:1032580003F08073002B10D17B681B68754A93427A
:1032680001D1754A00E0754AD7F8E43043F080731D
:1032780019461046FEF713FD4BE03B681B68744A7D
:10328800934216D1D7F8E43003F48003002B10D111
:103298007B681B68674A934201D1674A00E0674A26
:1032A800D7F8E43043F4800319461046FEF7F7FCDC
:1032B8002FE03B681B68674A93422AD1D7F8E4306D
:1032C80003F48003002B24D17B681B68624A934275
:1032D8001FD17B681B68574A934201D1564A00E0C8
:1032E800564AD7F8E43043F4800319461046FEF7EF
:1032F800D6FCFEF7B3FC0346B3F5805F09D87B68BC
:103308001B68D3F8D0207B681B6842F00102C3F821
:10331800D020FEF7A3FC0346B3F5005F40F0E88039
:103328003B681B684D4A934240F0E280D7F8E4308E
:1033380003F48003002B40F0DB807B681B68D3F824
:10334800D0207B681B6842F00102C3F8D020CFE090
:103358007B681B69B3F1004F04D07B681B69404A46
:10336800934206D17B681B68D7F8E8101846FEF729
:103378004AFE3B681B68002B80F2BA807B681B689A
:103388002C4A934201D12C4B00E02C4B1846FEF7F7
:1033980099FCC7F8E4003B681B68324A934210D195
:1033A8007B681B68234A934201D1234A00E0234AE1
:1033B800D7F8E43023F4000319461046FEF76FFCF3
:1033C8006DE03B681B68284A934210D17B681B68F4
:1033D800184A934201D1184A00E0184AD7F8E43055
:1033E80023F0807319461046FEF759FC57E03B68F6
:1033F8001B68174A934210D17B681B680D4A934299
:1034080001D10D4A00E00D4AD7F8E43023F48003D7
:1034180019461046FEF743FC41E03B681B680D4A1D
:1034280093423CD17B681B68024A93421ED1024AF0
:103438001DE000BF008002420883024208130246D2
:10344800002000B600000020632D3E05004000BAB1
:1034580001000080001000B200100246000020D7D2
:1034680010000080000008CE000004CA254AD7F8E2
:10347800E43023F4800319461046FEF710FCFEF7EB
:10348800EDFB0346B3F5805F09D87B681B68D3F86A
:10349800D0207B681B6842F00102C3F8D020FEF7F9
:1034A800DDFB0346B3F5005F22D13B681B68164A73
:1034B80093421DD1D7F8E43003F48003002B17D1D1
:1034C8007B681B68D3F8D0207B681B6842F0010238
:1034D800C3F8D0200CE07B689B6F43F020027B6828
:1034E8009A67012387F8EF3002E000BF00E000BFD1
:1034F8007B68002283F8742097F8EF301846F0377D
:10350800BD4680BD08130246000020D780B485B0B0
:1035180000AF78607B6803F00703FB600C4BDB6847
:10352800BB60BA684FF6FF031340BB60FB681A0222
:10353800BB68134343F0BF6343F40033BB60044AE2
:10354800BB68D36000BF1437BD465DF8047B704785
:1035580000ED00E080B400AF044BDB681B0A03F009
:1035680007031846BD465DF8047B704700ED00E090
:1035780080B483B000AF0346FB7197F90730002B86
:103588000BDBFB7903F01F02074997F907305B094A
:10359800012000FA02F241F8232000BF0C37BD4693
:1035A8005DF8047B704700BF00E100E080B483B0A1
:1035B80000AF03463960FB7197F90730002B0ADB2F
:1035C8003B68DAB20C4997F907301201D2B20B44C2
:1035D80083F800230AE03B68DAB20849FB7903F074
:1035E8000F03043B1201D2B20B441A7600BF0C370A
:1035F800BD465DF8047B704700E100E000ED00E0A7
:1036080080B489B000AFF860B9607A60FB6803F0F5
:103618000703FB61FB69C3F10703042B28BF0423DD
:10362800BB61FB690433062B02D9FB69033B00E04D
:1036380000237B614FF0FF32BB6902FA03F3DA43E0
:10364800BB681A407B699A404FF0FF317B6901FAE9
:1036580003F3D9437B680B40134318462437BD4610
:103668005DF8047B704780B582B000AF78607868F9
:10367800FFF74CFF00BF0837BD4680BD80B586B058
:1036880000AF0346B9607A60FB73FFF763FF7861A8
:103698007A68B9687869FFF7B3FF024697F90F307F
:1036A80011461846FFF782FF00BF1837BD4680BD98
:1036B80080B582B000AF0346FB7197F90730184612
:1036C800FFF756FF00BF0837BD4680BD80B483B002
:1036D80000AF78607B68013BB3F1807F01D30123A1
:1036E8000DE00A4A7B68013B5360084B00229A6050
:1036F800064B1B68054A43F0030313600023184672
:103708000C37BD465DF8047B704700BF10E000E051
:1037180080B483B000AF78607B68042B44D801A2E2
:1037280052F823F04F3700086D3700088F3700082C
:10373800B1370008413700081F4B1B681E4A43F089
:103748000403136031E01C4B1B681B4A23F004037D
:1037580013601A4BD3F8E030184A23F44003C2F838
:10376800E03022E0144B1B68134A23F00403136073
:10377800124BD3F8E03023F44003104A43F480039B
:10378800C2F8E03011E00C4B1B680B4A23F004032D
:1037980013600A4BD3F8E03023F44003074A43F49C
:1037A8000003C2F8E03000E000BF00BF0C37BD46A0
:1037B8005DF8047B704700BF10E000E0000C024693
:1037C80080B483B000AF194B1B6803F00403002BCF
:1037D80002D004237B6021E0154BD3F8E03003F4DA
:1037E80040033B603B68B3F5000F11D03B68B3F56D
:1037F800000F10D83B68002B04D03B68B3F5800F4E
:1038080003D008E000237B6008E001237B6005E02B
:1038180002237B6002E000237B6000BF7B681846C0
:103828000C37BD465DF8047B704700BF10E000E030
:10383800000C024680B489B000AF7860396000237C
:103848007B617B683B61BAE13B681A6801217B694F
:1038580001FA03F31340FB607B69BB61FB68002B33
:1038680000F0AA817B68554A93425DD17B681B684A
:10387800FB6101227B6902FA03F3DB43FA69134017
:10388800FB613B685B6803F001027B6902FA03F3A2
:10389800FA691343FB617B68FA691A60484A7B69D5
:1038A80052F833303B61464A7B69DB0013445B685E
:1038B800BB61BB69DA083B69083253F82230FB6107
:1038C800BB6903F007039B000F2202FA03F3DB43F3
:1038D800FA691340FB61BB6903F007039B000B22E5
:1038E80002FA03F3FA691343FB61BB69DA083B691F
:1038F8000832F96943F822103B691B68FB61BB6910
:103908005B00032202FA03F3DB43FA691340FB610D
:10391800BB695B00022202FA03F3FA691343FB61F5
:103928003B69FA691A6067E03B685B68022B03D061
:103938003B685B68122B45D17B69DA087B680832E3
:1039480053F82230FB617B6903F007039B000F22C9
:1039580002FA03F3DB43FA691340FB613B681B6916
:1039680003F00F027B6903F007039B0002FA03F3DD
:10397800FA691343FB617B69DA087B680832F969E5
:1039880043F822103B691B68FB61BB695B0003229B
:1039980002FA03F3DB43FA691340FB613B685B6897
:1039A80003F00302BB695B0002FA03F3FA691343ED
:1039B800FB613B69FA691A601EE000BF000002461D
:1039C800D8EA00083B691B68FB61BB695B000322FE
:1039D80002FA03F3DB43FA691340FB613B685B6857
:1039E80003F00302BB695B0002FA03F3FA691343AD
:1039F800FB613B69FA691A603B685B68012B0BD075
:103A08003B685B68022B07D03B685B68112B03D0CF
:103A18003B685B68122B30D13B699B68FB61BB69D3
:103A28005B00032202FA03F3DB43FA691340FB61EC
:103A38003B68DA68BB695B0002FA03F3FA6913436F
:103A4800FB613B69FA699A603B695B68FB6101222B
:103A5800BB6902FA03F3DB43FA691340FB613B6875
:103A68005B681B0903F00102BB6902FA03F3FA69F8
:103A78001343FB613B69FA695A603B685B68032B37
:103A880017D03B69DB68FB61BB695B00032202FA64
:103A980003F3DB43FA691340FB613B689A68BB692F
:103AA8005B0002FA03F3FA691343FB613B69FA69A5
:103AB800DA603B685B6803F08053002B7CD0474A90
:103AC8007B699B08183352F82330FB617B6903F04C
:103AD8000303DB000F2202FA03F3DB43FA69134006
:103AE800FB617B689A0A3E4B13407A6902F0030235
:103AF800D2009340FA691343FB6138497B699B08FC
:103B08001833FA6941F82320344B1B68FB61FB68C2
:103B1800DB43FA691340FB613B685B6803F480137D
:103B2800002B03D0FA69FB681343FB612B4AFB693E
:103B380013602A4B5B68FB61FB68DB43FA6913403F
:103B4800FB613B685B6803F40013002B03D0FA6940
:103B5800FB681343FB61214AFB6953601F4BD3F891
:103B68008430FB61FB68DB43FA691340FB613B6807
:103B78005B6803F40033002B03D0FA69FB68134336
:103B8800FB61164AFB69C2F88430144BD3F88030C5
:103B9800FB61FB68DB43FA691340FB613B685B68C8
:103BA80003F48033002B03D0FA69FB681343FB61ED
:103BB8000A4AFB69C2F880307B6901337B613B6844
:103BC8001A687B6922FA03F3002B7FF43DAE00BF2D
:103BD80000BF2437BD465DF8047B704700200246CD
:103BE8007F7F2F0080B483B000AF78600B467B8066
:103BF80013467B707B78002B03D07A887B689A61A8
:103C080002E07A887B689A6200BF0C37BD465DF88F
:103C1800047B704780B485B000AF7860394BDB6BAC
:103C280003F44033BB60BA687B689A420BD17B6867
:103C3800B3F5803F05D9334BDB68324A43F4802320
:103C4800D360002357E07B68B3F5803F0AD92D4B3A
:103C5800DB6823F4E0227B6813432A4A43F4802379
:103C6800D36007E0274BDB6823F4E02225497B6813
:103C78001343CB60244B1B68244AA2FB03239B09F4
:103C8800322202FB03F3214AA2FB03239B090133DF
:103C9800FB6002E0FB68013BFB601A4BDB6803F446
:103CA8000043002B02D1FB68002BF3D1FB68002BEB
:103CB8001BD0154B1B68154AA2FB03239B09322214
:103CC80002FB03F3114AA2FB03239B090133FB60A8
:103CD80002E0FB68013BFB600A4BDB6B03F400432B
:103CE800002B02D1FB68002BF3D1FB68002B01D11C
:103CF800032300E0002318461437BD465DF8047B13
:103D0800704700BF0008024600000020D34D621033
:103D180080B400AF044BDB6B03F440331846BD4658
:103D28005DF8047B704700BF0008024680B400AF0E
:103D3800054B1B69044A43F08043136100BFBD462D
:103D48005DF8047B704700BF0008024680B58EB05E
:103D580000AF7860002387F837307B68002B02D1EA
:103D6800012300F0C8BE994BDB6903F00C033B63E9
:103D7800964B9B6A03F00303FB627B681B6803F0A6
:103D88001003002B00F06C813B6B002B07D03B6BC2
:103D98000C2B40F0DE80FB6A012B40F0DA807B6858
:103DA800DB69002B02D1012300F0A5BE7B685A6AAB
:103DB800864B9B6803F40003002B04D0834B9B685D
:103DC80003F0704305E0814BD3F8F4301B0403F093
:103DD8007043934255D23B6B002B0AD17B685B6AD8
:103DE800184601F0D9F90346002B02D0012300F050
:103DF80082BE764B9B68754A43F400039360734B0D
:103E08009B6823F070427B685B6A704913438B6040
:103E18007B685B6AB3F1404F09D36C4BDB6823F0D6
:103E28001F027B681B6A69491343CB607EE07B688D
:103E38005B6A002B0ADA654BDB6823F478727B68CF
:103E48001B6A5B0161491343CB606FE07B685B6A67
:103E5800B3F1804F0AD35D4BDB6823F4F8427B68EB
:103E68001B6A9B0259491343CB605FE0574BDB68E1
:103E780023F478227B681B6ADB0354491343CB6025
:103E880054E0524B9B68514A43F4000393604F4BF4
:103E98009B6823F070427B685B6A4C4913438B60D4
:103EA8007B685B6AB3F1404F09D3484BDB6823F06A
:103EB8001F027B681B6A45491343CB6028E07B6877
:103EC8005B6A002B0ADA414BDB6823F478727B6863
:103ED8001B6A5B013D491343CB6019E07B685B6A51
:103EE800B3F1804F0AD3394BDB6823F4F8427B687F
:103EF8001B6A9B0235491343CB6009E0334BDB68EF
:103F080023F478227B681B6ADB0330491343CB60B8
:103F18003B6B002B0AD17B685B6A184601F03CF9C1
:103F28000346002B02D0012300F0E5BD01F0DEF8C6
:103F3800274B1B681846FDF7D7FD034687F827303F
:103F480097F82730002B00F08A8097F8273000F088
:103F5800D2BD7B68DB69002B66D01C4B1B681B4AF3
:103F680043F001031360FDF749FEB86209E0FDF76D
:103F780045FE0246BB6AD31A022B02D9032300F07E
:103F8800BABD124B1B6803F00403002BEFD00F4B94
:103F98009B680E4A43F4000393600C4B9B6823F024
:103FA80070427B685B6A094913438B607B685B6A74
:103FB800B3F1404F0ED3054BDB6823F01F027B683B
:103FC8001B6A02491343CB604AE000BF000C02465B
:103FD800040000207B685B6A002B0ADA984BDB68D8
:103FE80023F478727B681B6A5B0195491343CB60A5
:103FF80036E07B685B6AB3F1804F0AD3904BDB688D
:1040080023F4F8427B681B6A9B028D491343CB60FB
:1040180026E08B4BDB6823F478227B681B6ADB0382
:1040280087491343CB601BE0854B1B68844A23F008
:1040380001031360FDF7E2FDB86209E0FDF7DEFD5C
:104048000246BB6AD31A022B02D9032300F053BDE0
:104058007B4B1B6803F00403002BEFD100E000BF8B
:104068007B681B6803F00103002B00F08B803B6B1F
:10407800082B05D03B6B0C2B09D1FB6A032B06D10F
:104088007B685B68002B7DD1012300F034BD7B6821
:104098005B68B3F5803F06D1694B1B68684A43F4F7
:1040A8008033136041E07B685B68B3F5A02F12D1C1
:1040B800634B1B68624A43F480231360604B1B68A0
:1040C8005F4A23F4801313605D4B1B685C4A43F41A
:1040D8008033136029E07B685B68B3F5A81F12D1B1
:1040E800574B1B68564A43F480231360544B1B6894
:1040F800534A43F480131360514B1B68504A43F4EE
:104108008033136011E04E4B1B684D4A23F4803313
:1041180013604B4B1B684A4A23F480231360484BB7
:104128001B68474A23F4801313607B685B68002B85
:1041380014D0FDF763FDB86209E0FDF75FFD0246A4
:10414800BB6AD31A642B02D9032300F0D4BC3C4BBE
:104158001B6803F40033002BEFD013E0FDF74EFD8E
:10416800B86209E0FDF74AFD0246BB6AD31A642B20
:1041780002D9032300F0BFBC314B1B6803F40033A2
:10418800002BEFD17B681B6803F00203002B5FD084
:104198003B6B042B05D03B6B0C2B14D1FB6A022B19
:1041A80011D17B68DB68002B02D1012300F0A3BC8E
:1041B800234B1B6923F4F8127B681B691B042049F5
:1041C80013430B6144E07B68DB68002B24D01C4B55
:1041D8001B681B4A43F480731360FDF70FFDB86238
:1041E80009E0FDF70BFD0246BB6AD31A022B02D980
:1041F800032300F080BC124B1B6803F48063002B80
:10420800EFD00F4B1B6923F4F8127B681B691B0462
:104218000B4913430B611BE0094B1B68084A23F445
:1042280080731360FDF7EAFCB8620BE0FDF7E6FC6B
:104238000246BB6AD31A022B04D9032300F05BBCE5
:10424800000C0246AF4B1B6803F48063002BEDD1D2
:104258007B681B6803F00803002B00F0C88000236C
:1042680087F83630A74BD3F8943003F00403002BBB
:1042780011D1A44BD3F89430A24A43F00403C2F8F6
:104288009430A04BD3F8943003F004037B617B692E
:10429800012387F836309C4B9B6A03F00103002BFF
:1042A80019D1994B9B6A984A43F001039362FDF731
:1042B800A5FCB86209E0FDF7A1FC0246BB6AD31A67
:1042C800022B02D9032300F016BC8F4B9B6A03F024
:1042D8000103002BEFD07B685B69002B5FD0894B13
:1042E800D3F8F0303B627B689A693B6A03F08053ED
:1042F8009A4237D03B6A03F00063002B06D03B6A32
:1043080003F08063002B01D10123F4E33B6A03F03F
:104318008063002B1BD07B4BD3F8F030794A23F015
:10432800A053C2F8F030FDF769FCB86208E0FDF769
:1043380065FC0246BB6AD31A052B01D90323DAE3CD
:10434800704BD3F8F03003F00063002BEFD16D4BC6
:10435800D3F8F03023F080527B689B696949134396
:10436800C1F8F030674BD3F8F030664A43F0806309
:10437800C2F8F030FDF742FCB86208E0FDF73EFCF9
:104388000246BB6AD31A052B01D90323B3E35D4B5D
:10439800D3F8F03003F00063002BEFD01BE0594B4B
:1043A800D3F8F030574A23F0A053C2F8F030FDF7A5
:1043B80025FCB86208E0FDF721FC0246BB6AD31A67
:1043C800052B01D9032396E34E4BD3F8F03003F0C5
:1043D8000063002BEFD197F83630012B07D1494BFA
:1043E800D3F89430474A23F00403C2F894307B682A
:1043F8001B6803F00403002B00F01181002387F8E9
:104408003530404BD3F8943003F00403002B11D11E
:104418003C4BD3F894303B4A43F00403C2F8943041
:10442800384BD3F8943003F004033B613B69012314
:1044380087F83530344B9B6A03F00103002B18D101
:10444800314B9B6A304A43F001039362FDF7D6FB78
:10445800B86208E0FDF7D2FB0246BB6AD31A022B0A
:1044680001D9032347E3284B9B6A03F00103002B80
:10447800F0D07B689B6803F00103002B1FD07B689A
:104488009B6803F00403002B10D01E4BD3F8F030C8
:104498001C4A43F00403C2F8F0301A4BD3F8F0304A
:1044A800184A43F00103C2F8F03018E0154BD3F86E
:1044B800F030144A43F00103C2F8F0300FE0114B1A
:1044C800D3F8F0300F4A23F00103C2F8F0300D4B57
:1044D800D3F8F0300B4A23F00403C2F8F0307B68BD
:1044E8009B68002B57D0FDF789FBB8620EE0FDF7FB
:1044F80085FB0246BB6AD31A41F28832934205D93A
:104508000323F8E2000C0246000802469C4BD3F84D
:10451800F03003F00203002BE9D07B689B6803F0BE
:104528008003002B1BD0964BD3F8F030944A43F00D
:104538008003C2F8F0300AE0FDF760FB0246BB6A70
:10454800D31A41F28832934201D90323D3E28C4B28
:10455800D3F8F03003F40063002BEDD053E0884B20
:10456800D3F8F030864A23F08003C2F8F0300AE02E
:10457800FDF744FB0246BB6AD31A41F288329342E4
:1045880001D90323B7E27E4BD3F8F03003F400637C
:10459800002BEDD137E0FDF731FBB8620AE0FDF7FB
:1045A8002DFB0246BB6AD31A41F28832934201D9E5
:1045B8000323A0E2724BD3F8F03003F00203002B80
:1045C800EDD16F4BD3F8F03003F08003002B1AD0F5
:1045D8006B4BD3F8F0306A4A23F08003C2F8F0300E
:1045E8000AE0FDF70BFB0246BB6AD31A41F2883298
:1045F800934201D903237EE2614BD3F8F03003F4F0
:104608000063002BEDD197F83530012B07D15C4BB7
:10461800D3F894305A4A23F00403C2F894307B68E4
:104628001B6803F02003002B36D07B68DB6A002B65
:1046380019D0534B1B68524A43F480531360FDF75B
:10464800DDFAB86208E0FDF7D9FA0246BB6AD31A68
:10465800022B01D903234EE2494B1B6803F4005394
:10466800002BF0D018E0464B1B68454A23F48053D2
:104678001360FDF7C3FAB86208E0FDF7BFFA024617
:10468800BB6AD31A022B01D9032334E23C4B1B68C3
:1046980003F40053002BF0D17B681B6803F0800300
:1046A800002B36D07B681B6B002B19D0344B1B6852
:1046B800334A43F480431360FDF7A0FAB86208E078
:1046C800FDF79CFA0246BB6AD31A022B01D90323D1
:1046D80011E22B4B1B6803F40043002BF0D018E0C9
:1046E800274B1B68264A23F480431360FDF786FA9C
:1046F800B86208E0FDF782FA0246BB6AD31A022BB9
:1047080001D90323F7E11E4B1B6803F40043002B78
:10471800F0D17B681B6803F04003002B7FD07B68D7
:104728005B6B002B62D0164B9B68154A43F4000361
:104738009360134B9B6823F070627B689B6A1049F7
:1047480013438B607B685B6AB3F1404F09D30C4B12
:10475800DB6823F01F027B681B6A09491343CB609F
:104768002AE07B685B6A002B0CDA054BDB6823F4D4
:1047780078727B681B6A5B0101491343CB601BE0BD
:10478800000C02467B685B6AB3F1804F0AD3A14BE9
:10479800DB6823F4F8427B681B6A9B029D4913433C
:1047A800CB6009E09B4BDB6823F478227B681B6AAB
:1047B800DB0398491343CB60964B1B68954A43F03B
:1047C80010031360FDF71AFAB86208E0FDF716FA4D
:1047D8000246BB6AD31A022B01D903238BE18D4B06
:1047E8001B6803F02003002BF0D018E0894B1B68EE
:1047F800884A23F010031360FDF700FAB86208E056
:10480800FDF7FCF90246BB6AD31A022B01D9032330
:1048180071E1804B1B6803F02003002BF0D17B680B
:104828009B6B002B00F06681002387F83430794BAE
:10483800DB6903F00C030C2B00F0F2807B689B6BA8
:10484800022B40F0C580734B1B68724A23F08073BB
:104858001360FDF7D3F9B86208E0FDF7CFF9024617
:10486800BB6AD31A022B01D9032344E1694B1B68A5
:1048780003F00073002BF0D1664BD3F8943003F0AB
:104888000403002B11D1634BD3F89430614A43F0F1
:104898000403C2F894305F4BD3F8943003F0040358
:1048A800FB60FB68012387F834305B4BDB6803F45B
:1048B8008023B3F5802F02D1012387F83730564B78
:1048C800DB68554A23F48023D360524B9B6A23F458
:1048D8007F4323F003037A68D16B7A68126C013A3C
:1048E800120211437A68526C0A434A4913438B6295
:1048F800484B5A6B494B13407A68926C013AC2F3A1
:1049080008017A68D26C013A520292B211437A686D
:10491800126D013A120402F4FE0211437A68526DD4
:10492800013A120602F0FE420A433A4913434B6326
:10493800384B9B6A374A23F0100393627B68DB6D20
:10494800344ADB009363334B9B6A324A43F01003CB
:104958009362304B9B6A23F00C027B689B6D2D4958
:1049680013438B6297F83730012B05D12A4BDB684C
:10497800294A43F48023D36097F83430012B07D1B8
:10498800244BD3F89430234A23F00403C2F894301C
:10499800204B1B681F4A43F080731360FDF72EF904
:1049A800B86208E0FDF72AF90246BB6AD31A022B5F
:1049B80001D903239FE0174B1B6803F00073002BFA
:1049C800F0D0144B9B6A134A43F48023936291E01E
:1049D800104B1B680F4A23F080731360FDF70EF924
:1049E800B86208E0FDF70AF90246BB6AD31A022B3F
:1049F80001D903237FE0074B1B6803F00073002BEA
:104A0800F0D1044B9B6A034A23F4E02323F0030309
:104A180093626FE0000C02460008024600008080A6
:104A2800374B9B6AFB61364B5B6BBB617B689B6B4F
:104A3800012B39D0FB6903F003027B68DB6B9A42D8
:104A480032D1FB691B0A03F00F027B681B6C013B28
:104A58009A4229D1FB6903F470427B685B6C9A42E5
:104A680022D1BB69C3F308027B689B6C013B9A4265
:104A78001AD1BB695B0A03F07F027B68DB6C013BE0
:104A88009A4211D1BB691B0C03F07F027B681B6D36
:104A9800013B9A4208D1BB691B0E03F07F027B6879
:104AA8005B6D013B9A4201D0012324E0144B9B6BC0
:104AB800DB08C3F30C027B68DB6D9A421AD0104BFB
:104AC8009B6A0F4A23F010039362FDF797F8B862C8
:104AD80000BFFDF793F80246BB6A9342F9D07B68A2
:104AE800DB6D074ADB009363054B9B6A044A43F07E
:104AF80010039362002318463837BD4680BD00BFB7
:104B0800000C024680B586B000AF786039607B68DB
:104B1800002B01D10123D9E19B4B1B6803F00F0344
:104B28003A689A4210D9984B1B6823F00F029649AD
:104B38003B6813430B60944B1B6803F00F033A6800
:104B48009A4201D00123C1E17B681B6803F010037E
:104B5800002B10D07B685A698C4B5B6A03F070039A
:104B68009A4208D9894B5B6A23F070027B685B69BB
:104B7800864913434B627B681B6803F00803002BCC
:104B880012D07B681A69814B1B6A1B0903F07003FA
:104B98009A4209D97D4B1B6A23F4E0627B681B6942
:104BA8001B017A4913430B627B681B6803F00403FB
:104BB800002B10D07B68DA68744B1B6A03F0700313
:104BC8009A4208D9714B1B6A23F070027B68DB6834
:104BD8006E4913430B627B681B6803F00203002BCA
:104BE80010D07B689A68694B1B6A03F00F039A42DE
:104BF80008D9664B1B6A23F00F027B689B686349E0
:104C080013430B627B681B6803F00103002B00F061
:104C1800D2800023FB757B685B68032B43D15B4B19
:104C2800D3F8943003F00403002B10D1574BD3F87A
:104C38009430564A43F00403C2F89430534BD3F8E7
:104C4800943003F00403BB60BB680123FB75FCF7D9
:104C5800D5FF38614E4BDB6803F48023002B0FD05F
:104C680008E0FCF7CBFF02463B69D31A022B01D9B7
:104C780003232BE1464BDB6803F48043002BF0D081
:104C8800FB7D012B07D1414BD3F894303F4A23F0E9
:104C98000403C2F894303D4B1B6803F00073002BEB
:104CA80021D1012312E17B685B68022B07D1374BC6
:104CB8001B6803F40033002B15D1012306E17B6840
:104CC8005B68002B07D1314B1B6803F00403002BF2
:104CD80009D10123FAE02D4B1B6803F48063002BF4
:104CE80001D10123F2E0294BDB6923F003027B6841
:104CF8005B6826491343CB61FCF780FF38617B680A
:104D08005B68032B12D10AE0FCF778FF02463B6987
:104D1800D31A41F28832934201D90323D6E01B4BC0
:104D2800DB6903F00C030C2BEED144E07B685B6875
:104D3800022B12D10AE0FCF761FF02463B69D31A45
:104D480041F28832934201D90323BFE00F4BDB695C
:104D580003F00C03082BEED12DE07B685B68002B79
:104D680023D10AE0FCF74AFF02463B69D31A41F215
:104D78008832934201D90323A8E0044BDB6903F08E
:104D88000C03002BEED116E000200240000C024676
:104D980000080246FCF732FF02463B69D31A41F28B
:104DA8008832934201D9032390E04A4BDB6903F030
:104DB8000C03042BEED17B681B6803F00203002B65
:104DC80010D07B689A68434B1B6A03F00F039A4222
:104DD80008D2404B1B6A23F00F027B689B683D4951
:104DE80013430B623C4B1B6803F00F033A689A426B
:104DF80010D2394B1B6823F00F0237493B68134325
:104E08000B60354B1B6803F00F033A689A4201D0D8
:104E180001235BE07B681B6803F00403002B10D0C0
:104E28007B68DA682B4B1B6A03F070039A4208D23E
:104E3800284B1B6A23F070027B68DB682549134303
:104E48000B627B681B6803F00803002B12D07B6899
:104E58001A69204B1B6A1B0903F070039A4209D296
:104E68001C4B1B6A23F4E0627B681B691B01194910
:104E780013430B627B681B6803F01003002B10D0F0
:104E88007B685A69134B5B6A03F070039A4208D235
:104E9800104B5B6A23F070027B685B690D49134312
:104EA8004B6200F021F802460A4B1B6A03F00F031D
:104EB8000A49CB5C22FA03F3094A1360094B1B68C1
:104EC8001846FCF711FE0346FB73FB7B18461837A0
:104ED800BD4680BD000C02460020024080EA000862
:104EE800000000200400002080B48BB000AF002335
:104EF8007B6200233B62784BDB6903F00C03BB61E8
:104F0800754B9B6A03F003037B61BB69002B05D0DB
:104F1800BB690C2B21D17B69012B1ED16E4B9B6881
:104F280003F40003002B07D16B4BD3F8F4301B0BB1
:104F380003F00F037B6205E0674B9B681B0F03F0D0
:104F48000F037B62654A7B6A52F823307B62BB6938
:104F5800002B10D17B6A3B620DE05F4BDB6903F0ED
:104F68000C03042B02D15E4B3B6204E0BB69082BA7
:104F780001D15B4B3B62BB690C2B40F0A580564BC3
:104F88009B6A03F003033B61534B9B6A1B0A03F0C4
:104F98000F030133FB60504B9B6A1B0903F00103AD
:104FA800BB604D4B9B6BDB08C3F30C03BA6802FB79
:104FB80003F307EE903AF8EE677AC7ED017A3B699A
:104FC800022B03D03B69032B22D043E0FB6807EE9A
:104FD800903AF8EE677ADFED436A86EEA77A3E4BA1
:104FE8005B6BC3F3080307EE903AF8EE676A97ED38
:104FF800016ADFED3D5AC6EE257A76EEA77AF7EE1E
:10500800006A77EEA67A67EE277AC7ED077A46E058
:10501800FB6807EE903AF8EE677ADFED326A86EEC3
:10502800A77A2D4B5B6BC3F3080307EE903AF8EEB3
:10503800676A97ED016ADFED2C5AC6EE257A76EE9F
:10504800A77AF7EE006A77EEA67A67EE277AC7EDB9
:10505800077A24E07B6A07EE903AF8EE676AFB6805
:1050680007EE903AF8EE677A86EEA77A1A4B5B6BF2
:10507800C3F3080307EE903AF8EE676A97ED016A02
:10508800DFED195AC6EE257A76EEA77AF7EE006AB2
:1050980077EEA67A67EE277AC7ED077A00BF0E4B40
:1050A8005B6B1B0E03F07F0301333B603B6807EE2D
:1050B800903AB8EE677AD7ED076AC6EE877AFCEEC3
:1050C800E77A17EE903A3B623B6A18462C37BD46A2
:1050D8005DF8047B704700BF000C024698EA0008A0
:1050E8000024F4000024744B0000004680B500AF93
:1050F800FFF7FAFE0246074B1B6A03F00F03064947
:10510800CB5C22FA03F3054A1360044B1B6818466C
:1051180080BD00BF000C024680EA000800000020A5
:1051280080B500AFFFF7E2FF0246054B1B6A1B097B
:1051380003F007030349CB5C22FA03F3184680BD4A
:10514800000C024690EA000880B500AFFFF7CEFFDA
:105158000246054B1B6A1B0A03F007030349CB5C95
:1051680022FA03F3184680BD000C024690EA0008B4
:1051780080B500AFFFF7BAFF0246054B5B6A1B0913
:1051880003F007030349CB5C22FA03F3184680BDFA
:10519800000C024690EA000880B586B000AF78603F
:1051A8003E4BD3F8943003F00403002B03D0FEF7F2
:1051B800AFFD786119E0394BD3F89430374A43F0A2
:1051C8000403C2F89430354BD3F8943003F0040349
:1051D800FB60FB68FEF79CFD7861304BD3F8943098
:1051E8002E4A23F00403C2F894307B69B3F5403F9C
:1051F80003D07B69B3F5003F09D17B68B3F1805FC9
:1052080002D201233B6133E000233B6130E07B683D
:10521800B3F1805F08D27B69B3F5803F02D10323E5
:105228003B6125E0012335E07B68B3F1005F0FD9CE
:105238007B69002B09D17B68B3F1405F02D9002359
:105248003B6115E001233B6112E000233B610FE065
:105258007B68B3F1805F09D17B69B3F5803F02D1E8
:1052680001233B6104E002233B6101E001233B6130
:105278000B4B1B6823F00F0209493B6913430B6072
:10528800074B1B6803F00F033A699A4201D00123C8
:1052980000E0002318461837BD4680BD000C0246C2
:1052A800002002402DE9B04FB6B000AFC7F8C400E7
:1052B800002387F8D330002387F8D230D7F8C430DA
:1052C800D3E9002302F00104002554EA05030BD0BA
:1052D800C54BD3F8E03023F00301D7F8C4301B6D79
:1052E800C14A0B43C2F8E030D7F8C430D3E90023F1
:1052F80002F004084FF0000958EA09030BD0BA4B32
:10530800D3F8E03023F03001D7F8C4305B6DB64AEB
:105318000B43C2F8E030D7F8C430D3E9002302F0D9
:10532800080A4FF0000B5AEA0B030BD0AE4BD3F828
:10533800E03023F0C001D7F8C4309B6DAA4A0B4374
:10534800C2F8E030D7F8C430D3E9002302F01003E4
:10535800C7F8B8300023C7F8BC30D7E92E120B467F
:1053680013430BD0A04BD3F8E03023F44071D7F8A7
:10537800C430DB6D9C4A0B43C2F8E030D7F8C43028
:10538800D3E9002302F02003C7F8B0300023C7F8A0
:10539800B430D7E92C120B4613430BD0924BD3F8F9
:1053A800E83023F00701D7F8C4301B6E8E4A0B4350
:1053B800C2F8E830D7F8C430D3E9002302F040033C
:1053C800C7F8A8300023C7F8AC30D7E92A120B4633
:1053D80013430BD0844BD3F8E03023F44061D7F863
:1053E800C4305B6E804A0B43C2F8E030D7F8C43053
:1053F800D3E9002302F08003C7F8A0300023C7F8E0
:10540800A430D7E928120B4613430BD0764BD3F8B8
:10541800E03023F44051D7F8C4309B6E724A0B43F6
:10542800C2F8E030D7F8C430D3E9002302F480731F
:10543800C7F898300023C7F89C30D7E926120B46E6
:1054480013430BD0684BD3F8E83023F0C001D7F8EA
:10545800C430DB6E644A0B43C2F8E830D7F8C43076
:10546800D3E9002302F48003C7F890300023C7F87B
:105478009430D7E924120B4613430BD05A4BD3F878
:10548800E03023F44041D7F8C4301B6F564A0B4331
:10549800C2F8E030D7F8C430D3E9002302F400732F
:1054A800C7F888300023C7F88C30D7E922120B469A
:1054B80013430BD04C4BD3F8E83023F44061D7F8B2
:1054C800C4305B6F484A0B43C2F8E830D7F8C430A1
:1054D800D3E9002302F48063C7F880300023C7F8BB
:1054E8008430D7E920120B4613430BD03E4BD3F838
:1054F800E03023F44021D7F8C4309B6F3A4A0B437D
:10550800C2F8E030D7F8C430D3E9002302F40063CE
:10551800BB670023FB67D7E91E120B4613430BD06A
:10552800314BD3F8E83023F44071D7F8C430DB6F3F
:105538002D4A0B43C2F8E830D7F8C430D3E900232A
:1055480002F400533B6700237B67D7E91C120B4624
:1055580013434FD0D7F8C430D3F88C30802B2DD0DC
:10556800802B27D8602B2BD0602B23D8402B06D03C
:10557800402B1FD8002B09D0202B11D01AE01A4B32
:105588009B6A194A43F4803393621AE0D7F8C4300F
:105598000833184602F014F9034687F8D33010E0B0
:1055A800D7F8C4302C33184602F0A2F9034687F81E
:1055B800D33006E0012387F8D33002E000BF00E0D3
:1055C80000BF97F8D330002B10D1074BD3F8E43045
:1055D80023F0E001D7F8C430D3F88C30024A0B43EB
:1055E800C2F8E43006E000BF000C024697F8D3305A
:1055F80087F8D230D7F8C430D3E9002302F4004347
:10560800BB660023FB66D7E91A120B46134346D044
:10561800D7F8C430D3F8A030B3F5A04F28D0B3F5ED
:10562800A04F21D8B3F5804F22D0B3F5804F1BD8B7
:10563800B3F5405F1CD0B3F5405F15D8B3F5005FF4
:1056480008D0B3F5005F0FD8002B11D0B3F5805FF9
:105658000ED009E0D7F8C4300833184602F0B0F885
:10566800034687F8D33004E0012387F8D33000E0FD
:1056780000BF97F8D330002B0DD1B64BD3F8E830E4
:1056880023F4E041D7F8C430D3F8A030B14A0B4333
:10569800C2F8E83003E097F8D33087F8D230D7F86B
:1056A800C430D3E9002302F480333B6600237B66D1
:1056B800D7E918120B4613433ED0D7F8C430D3F8B5
:1056C8008430042B1DD801A252F823F01357000888
:1056D800E9560008F7560008135700081357000842
:1056E8009C4B9B6A9B4A43F4803393620EE0D7F845
:1056F800C4302C33184602F0FBF8034687F8D33041
:1057080004E0012387F8D33000E000BF97F8D330D6
:10571800002B0DD18F4BD3F8E43023F00701D7F8D5
:10572800C430D3F884308B4A0B43C2F8E43003E02A
:1057380097F8D33087F8D230D7F8C430D3E90023AC
:1057480002F40033BB650023FB65D7E916120B464C
:1057580013434AD0D7F8C430D3F88830B3F5802F34
:1057680028D0B3F5802F21D8B3F5403F24D0B3F526
:10577800403F1BD8B3F5003F0ED0B3F5003F15D816
:10578800002B1BD0B3F5803F10D1724B9B6A714A36
:1057980043F48033936212E0D7F8C4302C331846B0
:1057A80002F0A6F8034687F8D33008E0012387F80B
:1057B800D33004E000BF02E000BF00E000BF97F86C
:1057C800D330002B0DD1634BD3F8E83023F4E0211C
:1057D800D7F8C430D3F888305E4A0B43C2F8E830B3
:1057E80003E097F8D33087F8D230D7F8C430D3E93C
:1057F800002302F480233B6500237B65D7E914125C
:105808000B46134300F0BA80002387F8D130514B80
:10581800D3F8943003F00403002B13D14D4BD3F885
:1058280094304C4A43F00403C2F89430494BD3F8FF
:10583800943003F00403C7F8C830D7F8C830012300
:1058480087F8D130444B9B6A434A43F00103936283
:10585800FCF7D4F9C7F8CC000BE0FCF7CFF9024607
:10586800D7F8CC30D31A022B03D9032387F8D330C7
:1058780005E0394B9B6A03F00103002BEDD097F844
:10588800D330002B6AD1334BD3F8F03003F4407394
:10589800C7F8D430D7F8D430002B23D0D7F8C43089
:1058A800D3F8B820D7F8D43093421BD0294BD3F87B
:1058B800F03023F44073C7F8D430264BD3F8F030D7
:1058C800244A43F48033C2F8F030224BD3F8F03046
:1058D800204A23F48033C2F8F0301E4AD7F8D43077
:1058E800C2F8F030D7F8D43003F00103002B19D0F8
:1058F800FCF784F9C7F8CC000DE0FCF77FF9024605
:10590800D7F8CC30D21A41F288339A4203D903230C
:1059180087F8D33006E00F4BD3F8F03003F00203DA
:10592800002BEAD097F8D330002B0DD1094BD3F8D0
:10593800F03023F44071D7F8C430D3F8B830054AB2
:105948000B43C2F8F0300DE097F8D33087F8D23027
:1059580008E000BF000C02460008024697F8D33062
:1059680087F8D23097F8D130012B07D1B24BD3F852
:105978009430B14A23F00403C2F89430D7F8C43005
:10598800D3E9002302F48013BB640023FB64D7E946
:1059980012120B46134342D0D7F8C430D3F89830CC
:1059A800B3F1406F22D0B3F1406F1BD8B3F1006F51
:1059B80011D0B3F1006F15D8002B19D0B3F1806F57
:1059C80010D1D7F8C4300833184601F0F9FE034661
:1059D80087F8D3300DE0984B9B6A974A43F400331D
:1059E800936206E0012387F8D33002E000BF00E0AD
:1059F80000BF97F8D330002B0DD18F4BD3F8E03090
:105A080023F04061D7F8C430D3F898308A4A0B4362
:105A1800C2F8E03003E097F8D33087F8D230D7F8EF
:105A2800C430D3E9002302F400233B6400237B64E1
:105A3800D7E910120B4613432DD0D7F8C430D3F84A
:105A48009030B3F5005F0BD0B3F5005F04D8002B9E
:105A580008D0B3F5805F07D0012387F8D33004E07E
:105A680000BF02E000BF00E000BF97F8D330002B72
:105A78000DD1714BD3F8E43023F44051D7F8C4303A
:105A8800D3F890306C4A0B43C2F8E43003E097F83F
:105A9800D33087F8D230D7F8C430D3E9002302F4E2
:105AA8008053BB630023FB63D7E90E120B461343F5
:105AB8000CD0614BD3F8E43023F40061D7F8C4303C
:105AC800D3F894305C4A0B43C2F8E430D7F8C430BA
